:060000000A128A110E280D
:10000800FE00030EF2000A08F3007F08F4000A124B
:100018008A11F0280A128A11112883010A128A11FA
:10002800BD28F800781819281D28831603139F1770
:100038002028831603139F1375182328272883164F
:1000480003131F162A28831603131F1275182D2849
:100058003128831603139F163428831603139F121F
:1000680045283F309F055D281F083F3940389F00CD
:100078005D281F083F3980389F005D28C0309F04E5
:100088005D28760883120313A000A1012108003A15
:1000980003194F285D282008013A03193528053A25
:1000A800031938280C3A03193D281C3A0319422829
:1000B8005D287708A000A00DA00D1F082006C339F1
:1000C80020069F001F140800831603178801283094
:1000D8008900831603138501831203138501831690
:1000E80003138701831203138701831603138801FF
:1000F8008312031388017030831603138F040F14BF
:100108000F300A128A11DD200A128A11F50108300F
:10011800F6000D30F70000300A128A1115200A1275
:100128008A1108008312031306189B289C28A0280C
:100138000130FF007F0885078618A328A428A62871
:10014800013085020619A928AA28B0280D300A12FC
:100158008A1111210A128A11831203138619B528EC
:10016800B628BC280B300A128A1111210A128A11EA
:1001780008000A128A1168200A128A110A128A11C2
:1001880003210A128A1176088312031387000F309D
:1001980083120313A200A20BCF280A128A111E2170
:1001A8000A128A11831203138800C2280A128A11BC
:1001B8000E28F5007508FF007F08831603138604D0
:1001C80081137508FF007F0895048B157508FF00DB
:1001D8007F0896048B1708000B1CF328F428FA28CC
:1001E8000A128A1196200A128A110B107408FF004D
:1001F80073088A00720E8300FE0E7E0E09008312B9
:1002080003139F149F1809290A2906291E08F600B6
:10021800831603131E08F5000800F1007108F000AA
:10022800F00DF00D831203131F087006C339700612
:100238009F000800831203131F0CF500750C0F397B
:020248000800AC
:04400E00D420FF3F7C
:00000001FF
