:060000000A128A110E280D
:10000800FE00030EF7000A08F8007F08F9000A123C
:100018008A11A4290A128A111128F001F101F201AA
:10002800F301F40183120313A901AA01AB018301AF
:100038000A128A111A2983120313A20043283F3097
:100048007D2806307D285B307D284F307D2866303E
:100058007D286D307D287D307D2807307D287F30D4
:100068007D286F307D2877307D287C307D28393099
:100078007D285E307D2879307D2871307D282208E2
:10008800A000A1012108003A03194B287D28200867
:10009800003A03192328013A03192528033A0319BA
:1000A8002728013A03192928073A03192B28013A66
:1000B80003192D28033A03192F28013A0319312867
:1000C8000F3A03193328013A03193528033A03195B
:1000D8003728013A03193928073A03193B28013A06
:1000E80003193D28033A03193F28013A0319412807
:1000F8007D28080083120313A50025188428882862
:10010800831603139F178B28831603139F138312D9
:100118000313201890289428831603131F16972872
:10012800831603131F128312031320189C28A02878
:10013800831603139F16A328831603139F12B4284C
:100148003F309F05CC281F083F3940389F00CC28F6
:100158001F083F3980389F00CC28C0309F04CC2826
:10016800831203132108A300A4012408003A0319E9
:10017800BE28CC282308013A0319A428053A0319F4
:10018800A7280C3A0319AC281C3A0319B128CC2823
:100198002208A300A30DA30D1F082306C3392306B5
:1001A8009F001F1408008316031788012830890050
:1001B8008316031385017F3083120313850083168A
:1001C800031387018312031387018316031388011E
:1001D80083120313880183160313890183120313FF
:1001E80089017030831603138F040F140F300A121D
:1001F8008A11C4210A128A1183120313A00108303C
:10020800A1000D30A20000300A128A117E200A12C5
:100218008A118B178B16F830831603138105811208
:1002280064308312031381000B1108000A128A112B
:10023800D7200A128A110A128A11F2210A128A1187
:10024800831203132108F40074080A128A11832107
:100258000A128A11831203132108AA002008A90090
:100268002908F2002A08F30072080A128A111F20CE
:100278000A128A11F00073080A128A111F200A1242
:100288008A11F100831203132B080A128A11E12143
:100298000A128A11740883120313A00005080A12AF
:1002A8008A1102220A128A111F290A128A110E289B
:1002B8008312031306186129622966290130FF0099
:1002C8007F088507861869296A296C290130850203
:1002D80006196F29702976290D300A128A110F2202
:1002E8000A128A118312031386197B297C29822911
:1002F8000B300A128A110F220A128A11080083127F
:100308000313A80028080F39A7002808A200043002
:100318000310A20CFF3E031D8C2922080F39A600EA
:100328002708A200A3012608A400A5012408A50007
:10033800A40122082404A00023082504A100080021
:100348000B1DA729A829B1290130FF007F088312B6
:100358000313AB07643081000B110B1CB429B529BA
:10036800BB290A128A115C210A128A110B1079081A
:10037800FF0078088A00770E8300FE0E7E0E0900C3
:1003880083120313A0002008FF007F0883160313BD
:1003980086048113831203132008FF007F08831645
:1003A800031395048B15831203132008FF007F089D
:1003B8008316031396048B17080083120313A000F7
:1003C800201CE729E829ED290910700888008914FC
:1003D800F129891071088800091408008312031391
:1003E8009F149F18F829F929F5291E08A1008316DA
:1003F80003131E0883120313A000080083120313BB
:10040800A10021082002031C0A2A0B2A0D2A09151B
:100418000E2A09110800F6007608F500F50DF50D0D
:10042800831203131F087506C33975069F00080059
:04400E00D420FF3F7C
:00000001FF
