:060000000A128A110E280D
:10000800FE00030EF0000A08F1007F08F2000A1251
:100018008A112C280A128A11112883010A128A11BE
:100028005D28831603178801890183160313850148
:1000380003300A128A1150200A128A11703083166E
:1000480003138F040F148B178B15033096000800C9
:100058000B1C2F28302836280A128A113F200A1232
:100068008A110B107208FF0071088A00700E830055
:10007800FE0E7E0E09008312031306184428452835
:1000880049280130FF007F08850786184C284D282D
:100098004F28013085020800F300831603138113EB
:1000A8007308FF007F0886047308FF007F08950423
:1000B80008000A128A1115200A128A1183120313E2
:0A00C800850165280A128A110E282E
:04400E00D420FF3F7C
:00000001FF
